:020000040022D8
:1000000070B5174800F030F8164C0025A562A563BE
:1000100000F01CFE01F093FA10B10120A07001E085
:1000200000F018FF00F026FF02F07EF900F089FDD5
:10003000656300F0B9FC0028FBD00A492079491C0F
:1000400058300870074800220121401C02F007FACE
:10005000BDE87040002201231146501E00F02AB86E
:100060005C2D22004C272200854670470047EFF3A5
:10007000108072B6704780F310887047F7490A689D
:1000800040F6014342EA03020A60F54909684968FB
:1000900081420ED1F3480121C160F3490A6822F47C
:1000A00000120A604FF47A7101604FF00301816021
:1000B000FEE7704710B500204FF47A51401C88428B
:1000C000FCD303B90022E948016821F02201016054
:1000D00042F0010C6046FFF7D1FFBDE810406046DA
:1000E000FFF7C4BF70B505460E462EE002F09BF93F
:1000F000A0F13001092901D800010EE0A0F1410171
:10010000052903D80001A0F55C7006E0A0F16101AB
:1001100005291ED80001A0F5AE60C4B202F083F933
:10012000A0F13001092901D80C430BE0A0F14101F5
:10013000052901D8373804E0A0F16101052908D864
:100140005738044305F8014B761E002ECED101200E
:1001500070BD002070BD10B500F081FE38B101F017
:1001600003FA20B101F047F808B1012010BD0020CA
:1001700010BD70B5BE4E0024A6F10F050DE0A878A5
:10018000315D0028286A204402D001F014FA01E011
:1001900000F063FE002804D0641C686A8442EEDB31
:1001A000012070BD30B5002306E0C45CCD5CAC42DC
:1001B00001D0002030BD5B1C9342F6DB012030BD36
:1001C00010B5AB4C0F3C226A2AB1626A002A12DBDE
:1001D000032A10D002E00022C4E90802A44B99547B
:1001E000216A1144814212D1521CA2491846FFF7DC
:1001F000D9FF50B901E0002010BD626A9D49521C30
:10020000C91C9B48FFF7CEFF08B1012000E0002089
:100210000028606A03D0401C6062012010BD0028E5
:1002200001DDFFF7A6FF4FF0FF306062E3E770B536
:100230000D468F4E044600F1807101200F3EB1F152
:10024000807F12D2B07129462046FFF7B9FFD0B99E
:10025000B07829460028204603D0BDE8704001F060
:10026000AAB9BDE8704000F0F8BD04F18061B1F1B9
:10027000407F06D2B07129462046BDE8704001F0AB
:1002800040B825702078012070BD38B5784C44F610
:1002900020650F3C1CE02581E0784C281DD0012111
:1002A0006846FFF71FFF002816D060799DF8001000
:1002B00008446071206BFFF7BAFF00280CD0206B58
:1002C000401C20636089401E6081606B401C60633D
:1002D00060890028DFD1012038BD02F0A4F88DF834
:1002E0000000E2E710B502F09EF8FC2824D102F0ED
:1002F0009AF8062820D102F096F802F094F802F05D
:1003000092F85B4C0F3CE06102F08DF8E16941EA44
:100310000020E06102F087F8E16941EA0040E06115
:1003200002F081F8E16941EA0060E0615249401E53
:10033000884201D2012010BD002010BD00B589B057
:100340000A460E218DF8001008218DF801100121B8
:100350008DF80210CC218DF80310FC218DF80410CB
:1003600000218DF8051010F1807114D340480F382A
:1003700083780DF1060013B101F060F901E000F09F
:1003800074FD002805D001220A21684602F067F8B2
:10039000012009B000BD0020FBE710B500F02BFFE5
:1003A000002813D0FFF7E5FE00280FD000F057FD1E
:1003B00020B101F0D9F808B1012400E000242C4854
:1003C0000F38807808B101F049F9204610BD70B5AA
:1003D000FFF7E3FF002808D002F025F8FC2803D13E
:1003E00002F021F8082801D0002070BD02F01BF8AF
:1003F000044602F018F844EA002402F014F844EA33
:10040000004402F010F844EA006502F00CF80446DB
:1004100002F009F844EA002402F005F844EA004436
:1004200002F001F844EA00612846FFF787FFC0B2F6
:1004300070BD10B501F0F7FFFF2803D101F0F3FF05
:10044000012801D0002010BD09480F388078A8B1DC
:1004500001F0E9FF01F086F814E00000BC00320072
:1004600008ED00E00090320000E100E020043600DA
:100470005B27220046252200FF117A0001F0D3FFFE
:1004800000F0E9FC0028DED0012010BD10F18072E0
:100490000ED3FF48002303625B1E4362807810B1D5
:1004A000104600F0E9BF69B94FF4004000F0DFBC2E
:1004B00000F18062B2F1407F04D209B100F0DBBDEF
:1004C00000F056BF0020704710B501F0ACFFFF28C8
:1004D00003D101F0A8FF042801D0002010BD01F0D5
:1004E000A2FFEB4C206301F09EFF216B41EA00204C
:1004F000206301F098FF216B41EA0040206301F086
:1005000092FF216B41EA006001212063FFF7BEFFEB
:100510000028E3D0012010BD2DE9F0478146DDA081
:1005200092B000688846002610AF10904C4633E029
:100530004FF48051204601F0B7FBBA5D4021684678
:1005400001F0B0FF002504EB85106A46402101F060
:100550009DFA6D1C402DF6DB0025EA461122402154
:10056000684601F09FFF04EB85106A46402101F0C8
:100570001CFBBB5D0020524612F800C09C4503D016
:10058000002012B0BDE8F087401C4028F4DB6D1C51
:10059000402DE3DB04F580544445C9D3761C042E7A
:1005A000C4DB0120EDE710B5B94CA069B0F1A53F5F
:1005B00007D14FF400410020FFF7AEFF00B101204A
:1005C00060614FF480542146002001F06DFB21460C
:1005D000084601F069FB2146600001F065FB2146F9
:1005E0004FF4405001F060FB2146A00001F05CFB9D
:1005F00021464FF4A04001F057FB21464FF4C04084
:1006000001F052FB2146BDE810404FF4E04001F0FC
:100610004BBB10B501F007FF9D4CFF2803D020799C
:1006200048B9012006E001F0FEFE042805D020793B
:1006300008B902202071002010BD01F0F4FE2063F3
:1006400001F0F1FE216B41EA0020206301F0EBFE96
:10065000216B41EA0040206301F0E5FE216B41EA95
:1006600000608D492063884202D14FF07C402063B6
:100670000021FFF70BFF0028DED0012010BD8449C8
:10068000002001F1180288610421844801F08DBA2C
:1006900010B5FFF782FE00280AD001F0C4FEFC2846
:1006A00005D101F0C0FE7A4C0428608101D0002001
:1006B00010BD01F0B8FE206301F0B5FE216B41EAE8
:1006C0000020206301F0AFFE216B41EA004020636F
:1006D00001F0A9FE216B012241EA00606C49206310
:1006E0003C31E078C8706A4806213C3001F0B7FE22
:1006F000002020634268014622630123A06AFFF7BD
:10070000D9FC012010BD30B56148654D91B04469F8
:10071000601C0CD055224021684601F0C3FE5F48A2
:10072000CDE90E546A464021C03001F0AFF911B056
:1007300030BD30B50C46C1B00E218DF80010FB2C39
:1007400002D9002041B030BD211D8DF801100121DA
:100750008DF802104D218DF80310FC218DF8041046
:1007600000218DF8051000F180716B46B1F1807F9A
:100770000CD2474822468078002803F1060002D0B8
:1007800000F049FF0CE000F06EFB09E000F1806131
:10079000B1F1407F07D201462246981D00F07FFB51
:1007A0000028CFD008E0002104E05D1810F8012BEC
:1007B000AA71491CA142F8D30122A11D684601F08B
:1007C0004EFE0120BEE710B5FFF7E7FD002808D078
:1007D00001F029FEFC2803D101F025FE052801D0F7
:1007E000002010BD01F01FFE294C206301F01BFE0C
:1007F000216B41EA0020206301F015FE216B41EAE4
:100800000040206301F00FFE216B41EA006020638D
:1008100001F009FE0146206BBDE8104089E710B5E4
:1008200001F001FEFC2805D101F0FDFD184C042863
:10083000608101D2002010BD01F0F5FD206301F0C0
:10084000F2FD216B41EA0020206301F0ECFD216BF9
:1008500041EA0040206301F0E6FD216B41EA0060BF
:1008600020636089001F6081012010BD70B50848B9
:1008700004212C30FFF736FC00287AD0044C2C34AD
:1008800020786178A378E27801441344194409E0A0
:100890004C27220000FF5AA5EFEEBEFC00FF03002C
:1008A00012579408FB4D002A69716881B4F8011051
:1008B00049BA296372D00026022A06D0042A18D029
:1008C000052A2AD0012A47D052E0E9BB02284FD19D
:1008D000F04802212C30FFF705FC002849D0207891
:1008E00061786B7942181A4400036A7140EA01107A
:1008F00011E049BB02283BD1E64802212C30FFF72A
:10090000F1FB28B920786178084469790844687156
:10091000208840BA0004A8631CE0A9B9042827D1A4
:10092000DC4804212C30FFF7DDFB002821D02078A3
:100930006178A2780144E078024411446A79114454
:100940006971216809BA01E012E012E021F0FF01AB
:100950000143A9636E8121E0014309D1CD48012102
:100960002C30FFF7BFFB002803D02078FF2801D0F0
:10097000002070BDFFF711FD0028FAD0C5492E20D8
:10098000491C00220870C3480121401C01F067FD8A
:10099000002201231146501EFFF78CFBA96B286B28
:1009A00008442863012070BDF8B5BA4C207840F0A7
:1009B0000100207001F04AFDE0702178002501F06F
:1009C0008001217065810D2850D00A284ED03A2828
:1009D00013D04C2816D04D2819D04E281CD0CE2824
:1009E00021D05E2829D0E5282CD0CC282FD018285B
:1009F00032D0572838D00F20F8BDFFF737FF70BB33
:100A00000420F8BDFFF70BFF48BB0520F8BDFFF73A
:100A1000DAFE20BB0620F8BDFFF775FEFFF738FEB3
:100A2000E8B90720F8BDFFF72AFEFFF7F2FD10B185
:100A3000FFF7B9FD13E00820F8BDFFF745FD70B9D9
:100A40000920F8BDFFF7F5FC48B90A20F8BDFFF70B
:100A5000BEFC20B90C20F8BDFFF744FC10B1A06A21
:100A600028B108E00E20F8BD8020207065E0608984
:100A700008B1206BA062FFF708FC40B1FFF76BFBE9
:100A800038B1E0783A2806D0402804D013E010208E
:100A9000F8BD1120F8BD01216846FFF723FB40B1E6
:100AA00060799DF80010084410F0FF0F03D0132068
:100AB000F8BD1220F8BD7749E078491C572816D0B8
:100AC0003A2813D001F13B064C2816D0CE281CD072
:100AD0005E281AD0E52818D0182822D04D282CD00E
:100AE000CC282AD0ED2828D01520F8BD2E2008705B
:100AF000684800220121401C04E0F0706548012292
:100B000006213C3001F0ABFC17E0F070FF203071A3
:100B10006048012206213C3001F0A1FCFC2030712C
:100B20000BE0F0705B48012206213C3001F097FC9D
:100B3000E06901F063FC10B1E5610020F8BD14200C
:100B4000F8BD30B5544B554C002108460022C5076E
:100B500002D083EA500000E04008521C082AF6D375
:100B600044F82100491CFF29EFD930BD4FF448114A
:100B70004FF0050C0968C90401D54FF00A0C002399
:100B800005E062461100A2F10102FBD15B1C834229
:100B9000F7D37047424900B5012048600022114652
:100BA0001046C0F10F0342FA03F303F00103834040
:100BB0001943401C1028F4DB4FF44810172202643C
:100BC00041649620FFF7D2FF3648016821F03001DA
:100BD00041F01001016000BD3149334A4A610022F1
:100BE0000A64324ACA60324AB2FBF0F040F08070C8
:100BF00088604FF464108861704770B54FF44E14EC
:100C0000D4F86001C00619D445F6C050FFF7E4FFE0
:100C1000FFF7C0FF4FF44816306820F00F05254855
:100C2000016841F0070101600A20FFF79FFF45F4CA
:100C3000805030604FF4E13001F0E0FB0020C4F858
:100C40003801C4F83C01C4F8D80270BD114830B472
:100C5000002101710123037044F62062028100F13A
:100C60000C024024147030245470312494703032BB
:100C70000E241470042454709370FC23137151716A
:100C80000D4A8170817111700162491E416230BC50
:100C9000B3E700004C2722002083B8EDCC272200C8
:100CA00000103200608133001710000100000204C0
:100CB00050C97FBBB804320093272200B0F5801FD3
:100CC0000AD36FF40011584A0144914204D300F151
:100CD0008061B1F1407F06D228B1411C03D0C0072A
:100CE00001D00120704700207047514910B54F488E
:100CF00008605049087818B144F62060088110BD9A
:100D00000889401E0004000C0881F8D149495A2086
:100D1000491C0022087047480121401C01F09FFB3C
:100D200000220123BDE810401146501EFFF7C2B952
:100D300070B5054600244FF4FA6606E00020401C1A
:100D4000B042FCD3FFF7D1FF641CAC42F6D370BDB8
:100D50004FF44812106800F00F014FF44E10D0F815
:100D60006031C3F30113012B24D0D0F8600110F0DF
:100D7000300F02D04BF6803001E045F6C0501268CB
:100D8000D20414D4052913D2DFE801F003050709C2
:100D90000B00022106E0032104E0042102E0062109
:100DA00000E008210844A0F1010090FBF1F0704739
:100DB000012070471068C00401D51F4870471F48C4
:100DC000405C4FF47A7110FB01F070471C48016AD7
:100DD0001C4A01EA02011C4A41EA02010162D0F800
:100DE000B01141F47041C0F8B0110168174A89B2DE
:100DF00041EA02010160416843F638026FF30F01D6
:100E00001144416050F8F41F21F03C01016070472B
:100E10000F48016841F0600101600D480C30016825
:100E2000C907FCD070470000FEDF01000024F40079
:100E3000009032004C272200007701004C25220050
:100E400068003200FF0000FF001111000000393877
:100E50001C043600704701207047012070470120B4
:100E60007047012070470120704701207047012022
:100E7000704700000020FF4A01461154401C202802
:100E8000FBD3FD48C17041704FF44810FB49016726
:100E9000416E21F01F0141F01E014166704705E0DF
:100EA00011F8013B521E00F8013BD2B2002AF7D1E3
:100EB0000120704730B504880C800022F04C1346A6
:100EC000B0F800C00D88654501D1521C02E0A1F8C0
:100ED00000C000225B1CA34201D1002030BD642A67
:100EE000EED3012030BD10B502EB420201F08003C9
:100EF00001E0521E11D0048804F08004A342F8D10E
:100F00004FF07C43F0221A80052201E0521E04D0EB
:100F100003888B42FAD1012010BD002010BDD949B1
:100F2000AA220A80D84B55221A8008807047D749D8
:100F3000AA220A80D64B55221A80088070474FF0AB
:100F40007C42F0211180CC494978012904D0022942
:100F500003D0032901D0FEE7E9E7E0E710B58446B6
:100F60000C46A020FFF7EBFFC348ACF800404278E6
:100F7000012A05D0022A05D0032A03D0002010BD83
:100F8000142201E04FF4B4722146BDE810406046DF
:100F9000A9E7F0B5B84C6078002868D14FF07C45DF
:100FA0002888698841F234222A8045F278636B8070
:100FB0002B88934204D1288069800420607056E019
:100FC0009020FFF7B4FF28880126BF2818D1902071
:100FD000FFF7ADFF68884FF49E71B1EB501F0DD045
:100FE000C91EB1EB501F09D040F29B21B1EB501F3D
:100FF00004D04FF49D71B1EB501F01D1667036E003
:101000009020FFF78CFF2888002701281AD1902014
:10101000FFF785FF688840F215120221B2EB501FDE
:1010200001D1617022E04FF48B72B2EB501F04D1FA
:101030006170A6709748A06019E04FF48972B2EB16
:10104000501FEED09020FFF76AFFB5F80002F0269F
:101050002E801C280DD19020FFF761FF68882E801C
:10106000A0F50851BA3904D103206070A77001209F
:10107000F0BD0020F0BD2DE9F0430446FFF789FFE5
:10108000002875D07C4F7878042813D0C4F30B0067
:10109000261A06F180652C0BFF2C0BDC8020FFF755
:1010A0004EFF7878AA225521012804D0022806D0C4
:1010B000032804D09DE0754B1A80754A02E0714BFD
:1010C0001A80714A11803021B8460127DFF8A4C187
:1010D00031804FF6FF79012813D146F2A812494614
:1010E0003046FFF700FF60B1E01704EB50700CEBE7
:1010F000E00120F007000A78201A87403A430A707E
:1011000074E098F801004146022801D0032870D10C
:101110008A7852B1D8F808108E422DD30425E117F1
:1011200004EB917121F003011BE0B5F5803F06D37C
:101130001025E11704EB117121F00F0111E0B5F555
:10114000004F06D30825E11704EB517121F0070188
:1011500007E0B5F5804F0CD304EBD471022521F0E4
:101160000101611A641A02280FD0032826D040E03A
:101170003DE004250024F6E7A1F580429642EBD23B
:10118000A1F540418E42DDD2D2E7434A494630467E
:10119000FFF7A9FE78B92CE0E01704EB50720CEBD6
:1011A000E20022F00702A21A017807FA02F21143C4
:1011B000641C01706D1E002DEED117E0374A4946C0
:1011C0003046FFF790FE78B913E0E01704EB507259
:1011D0000CEBE20022F00702A21A017807FA02F2F1
:1011E0001143641C01706D1E002DEED10120BDE87D
:1011F000F0830020FBE778B51F4E0024F07810B391
:101200001C4DC107A5F120050FD071680844401E90
:101210006946FFF74FFE002816D0BDF800000124F4
:10122000010AF0782954401CF070FFF7B2FE002844
:101230000AD07078012808D0022806D0032804D0EC
:10124000042847D05BE0012078BD706800F1806120
:10125000090BFF2953D8074A01F0070302EBD1021B
:101260000121127899400A4223D1FFF704FF002898
:10127000EAD015E0802D22009027220002030A0AFE
:10128000C0270900AA0A00FC540500FCAAAA00FC19
:10129000545500FC00C00FFC80841E00809698000E
:1012A0003178FF2001B128701CB1F178294401F890
:1012B000010C00240AE028190188ADF800107068BC
:1012C0002044FFF74BFE0028BED0A41CF0788442D7
:1012D000F1D311E0002073680BE029180A8819186F
:1012E000ADF800200A800988BDF80020914206D19F
:1012F000801CF1788842F0D30020F070A3E7002032
:1013000078BD2DE9F841454D0446454FE8788846BB
:10131000002640B169680844A04215D0FFF76BFF72
:10132000002823D0EE702E70E0070CD0641E6946B2
:101330002046FFF7BFFD002818D0BDF80000387028
:101340000120E87028706C60E87807F80080401C85
:10135000C0B2E87069680144090501D0202804D1B1
:10136000FFF749FF002801D0EE700120BDE8F881A9
:10137000F0B5FFF70EFE00284CD0284E70780428F8
:1013800049D08020FFF7DBFD254D7078AA2155223A
:101390001023FF2420354FF6FF774FF07C4C0128B7
:1013A00004D0022813D0032811D034E01D48018056
:1013B0001D490A8003801D4A39466046FFF793FDA8
:1013C00050B100202C54401C2028FBD321E01848A9
:1013D000018018490A800380707802280BD1164AD0
:1013E00039466046FFF77FFD28B100202C54401C91
:1013F0002028FBD30DE0707803280CD10F4A394622
:101400006046FFF770FD30B100202C54401C2028AE
:10141000FBD30120F0BD0020F0BD0000902722008A
:10142000602D2200AAAA00FC545500FCA0860100F1
:10143000AA0A00FC540500FC8096980000E1F5051E
:101440008A4A00215054491C4029FBD3704770B58B
:1014500004460D4600F013FCB4FBF0F1C80801F09F
:10146000070101228A40D1B2804A135C0DB10B43BF
:1014700000E08B43135470BD70B57D4E04467D4D26
:10148000307818B1287810BB052010E089B100F041
:10149000F6FB0146706882682046904720B1012122
:1014A0002046FFF7D4FF0EE0287880B90620287088
:1014B0000DE070686FF0704182682046904720B15F
:1014C000FF20FFF7BDFF012070BD287808B1002084
:1014D00070BD0720EBE72DE9F04707460C46DFF823
:1014E0008C9127E000F0CBFBB7FBF0F5EE0805F0A0
:1014F00007000121814019F8060001F0FF0810EAF9
:10150000080F0BD101213846FFF7B6FF002814D091
:1015100019F8060040EA080009F8060000F0AFFBE1
:101520006D1C6843401EC11B4A1CA24204D2641AAF
:10153000641E471C002CD5D10120BDE8F08710B5F2
:101540004B4C002020706080FFF77AFFFFF73EFCD5
:1015500000F0E0F800F0DCF910F0FF0001D101200C
:10156000207010BD0120704770B5414D287808B13A
:10157000002070BD6988C1B1AC68204604F1807458
:10158000B4F1807F00D304462046FFF7A4FF002873
:10159000EFD06868354A69880368403A2046984722
:1015A0006988884203D1012002E0012070BD00203B
:1015B0000021698070BD2DE9F0412D4E04460D4695
:1015C000307810B10020BDE8F0817088002740B16C
:1015D000B1680844A04205D0FFF7C6FF0028F2D04A
:1015E0007780B4602149708840390D54401C708068
:1015F00000F045FB7188B2680A44B2FBF0F300FBCF
:10160000132008B1402904D1FFF7AEFF0028DAD03B
:1016100077800120D7E770B5054615488C461446FB
:10162000017849B940682A46214643686046984790
:10163000A04201D1012070BD002070BD10B504464C
:101640000B488C46114602780AB1002010BD406854
:101650002246036960469847C0B210BD044810B5E1
:101660004068C0688047012010BD0000E02D2200C6
:10167000B02722005027220000F0070301229A40E1
:10168000FB4BC00853F8200000EB820009B1026058
:10169000704700210160704710B5F54CC30854F83D
:1016A000233003F5806303EB810100F00703012081
:1016B0009840012A0A6802D082430A6010BD0243A2
:1016C000FBE7EC49096800F01FBDEA49096800F032
:1016D00022BDE849096800F02ABD1CB5E54C9DED26
:1016E000040AD4ED000A8DEC020A00F0E1FC1CBDF6
:1016F00038B5E04CD4F800C0CDF800C000F029FDAA
:1017000038BD38B5DB4CD4F800C0CDF800C000F0CF
:10171000ACFC38BDD8484FF4C371D64A4180D74994
:101720001160017821F0FD01017000214170A0F1EC
:1017300008010120087070471CB505208DF80400D1
:1017400001226B4601A91046FFF7D2FF9DF8000069
:101750001CBD70B5C84D0446ED1F2878C00603D5E2
:101760005020FFF7AEFF06E00620FFF7AAFFFFF7C5
:10177000E3FF8007FBD52878000703D5FFF7DCFFE0
:10178000C007FBD1012000EB0420FFF79EFF287863
:10179000000703D5FFF7D0FFC007FBD170BD10B520
:1017A000B54C207800070DD5AB20FFF78AFF00204D
:1017B000B4F9021000E0401C8142FCD8207820F0EF
:1017C0000800207010BD7FB504004FF09F008DF819
:1017D00000004FF015008DF804004FF090000290CB
:1017E00000D103ACFFF7DBFF0225002623460322CE
:1017F00069460120FFF77CFF207820B1FF2802D046
:10180000032004B070BD2346022201A90120FFF786
:101810006FFFA670207808B1FF280AD12346022264
:1018200002A90420FFF764FFA670207818B1FF28F2
:1018300001D00220E5E7AB20FFF743FF8E490020EF
:10184000B1F9021001E0401C80B28142FBDC6D1E48
:101850002D042D0CCAD10020D3E72DE9F843864C86
:10186000207820F0010020706846FFF7ACFF0028C8
:101870004AD07F4E00219DF800309DF801C09DF8B0
:101880000250A4F10808A4F10709083601EB81020F
:1018900016F8127087421CD106EB420257789F421D
:1018A00017D19778674514D1D778AF4211D101EBA2
:1018B000810006EB4000808888F80200127A89F8DF
:1018C0000020207820F00C0040F0010020706170B2
:1018D00019E0491CC9B20F29D8D3BF2B16D010204C
:1018E0006070C0B200EB800006EB4000017A89F81E
:1018F000001005F00F0088F80200207820F00C009E
:1019000040F0210020700120BDE8F8830F20E7E7B8
:1019100010B500F0E5FC01280ED900231A4620215D
:101920005748FFF7EEFEFFF798FF002803D000208E
:10193000FFF70FFF012010BD002010BDE8E710B534
:10194000FFF7FAFE00F03C00800810BD70B50007FC
:10195000840EFFF7F1FE20F03C0525432846FFF7F3
:10196000F8FE4548C01F0078C00703D02846BDE8F0
:101970007040EEE670BD10B5FFF7DEFEC007FBD18C
:1019800010BD3D4810B50078C00703D1FFF7C0FF78
:10199000002804D0384808388078401C000410BD66
:1019A000F7B584B00C0016463DD00620FFF789FE3F
:1019B00031482F4901274078B23100EBC00001EBDC
:1019C0004000C0798DF80400FFF7DBFF9DF812108E
:1019D0009DF811209DF81030B0F1807F07D28DF86E
:1019E00005108DF806208DF8073004210AE09DF8D7
:1019F00013008DF805008DF806108DF807208DF87E
:101A000008300521002065180090012301AA28460E
:101A1000FFF763FE00233246214628460097FFF772
:101A20005CFEFFF7A8FF07B0F0BD134810B5C01F5C
:101A3000007800060CD5104C2078C10608D5400768
:101A400006D4B920FFF73DFE207840F00800207052
:101A500010BD094810B508380078810712D5C0F3C9
:101A600083000121FFF708FEBDE81040002070E66A
:101A700054252200C8272200C42722000024350054
:101A8000001BB700BDE8104000205FE72DE9F743D9
:101A9000F94884B00F4600781546C00709D03FB119
:101AA000FFF77DFEF44808380126416821B106E0C1
:101AB000002007B0BDE8F0834660FFF7CAFFEE4C98
:101AC000E41F2078C00603D55020FFF7FAFD06E09A
:101AD0000620FFF7F6FDFFF72FFE8007FBD52078E5
:101AE00041062ED5800701D5802401E04FF4807493
:101AF0000498B0FBF4F104FB1100261ABE4200D991
:101B00003E46B81BB0FBF4F804FB18092A463146E0
:101B10000498FFF745FF049835443044049007E0EB
:101B200021460498FFF73CFF049825442044049084
:101B3000B8F101082A46F3D249460498FFF730FF6E
:101B40002FE002208DF80400002425E00620FFF796
:101B5000B8FD9DF812008DF805009DF811008DF874
:101B600006009DF810008DF8070015F8010B8DF8A0
:101B700008000498401C0490FFF7DEFD8007FBD5A9
:101B80000521012301AA08460096FFF7A6FDFFF7ED
:101B9000D3FDC007FBD1641CBC42D7D30420FFF7A0
:101BA00090FDFFF742FF384683E72DE9F74FB24D2E
:101BB00082B00C46287816468846C00703D1FFF746
:101BC000A7FE00280DD05CB1FFF7E9FDAA4FDFF8B2
:101BD000ACB2AA46FF1FE946C82C05D2254604E050
:101BE000002005B0BDE8F08FC825387880060028B1
:101BF0009AF8010000EBC0010BEB410001DA80799B
:101C000000E040798DF80000FFF7BBFEB0F1807F67
:101C10000DD29DF80A008DF801009DF809008DF89D
:101C200002009DF808008DF80300042010E09DF8E4
:101C30000B008DF801009DF80A008DF802009DF858
:101C400009008DF803009DF808008DF804000520B8
:101C50003978890604D5552209F80020401CC0B205
:101C600033462A466946FFF743FD02982E4428442E
:101C70000290641BB0D1FFF7D8FE4046B1E710B523
:101C80007D4C2078C00702D1FFF742FE48B1607852
:101C90007A4900EB8000AA3901EB4000807900030B
:101CA00010BD4FF4805010BDF3B5734E83B00C4699
:101CB0003078C00703D1FFF72BFE002872D0FFF762
:101CC0006EFD6D4808380127416811B94760FFF77C
:101CD000C0FE0620FFF7F5FC7078684D0E280CD08A
:101CE000B4F5805F0DD800EBC00105EB4101097B25
:101CF000FF2906D08DF804101BE0604890F80A0117
:101D000015E0B4F5004F06D800EBC00005EB40002D
:101D1000807BFF280BD1FFF7B2FFA042707800EB69
:101D2000C00005EB400001D3407B00E0C07B8DF894
:101D3000040071789DF8042001EBC10105EB41011D
:101D40000120C97B8A421DD0FFF71BFE9DF80E10B3
:101D50009DF80D209DF80C30B0F1807F07D28DF8F2
:101D600005108DF806208DF8073004200AE09DF854
:101D70000F008DF805008DF806108DF807208DF8FE
:101D800008300520012301AA01460097FFF7A5FCB2
:101D9000FFF7D2FCC007FBD10420FFF792FCFFF74E
:101DA00044FE012005B0F0BDF0B5334F06460D46A8
:101DB0003878A1B01446C1071FD040F00400387035
:101DC0000BE080212846FFF7F0FE6A46802130466E
:101DD000FFF75CFE80368035803C802C6A46F0D868
:101DE00021462846FFF7E1FE38786A4620F00400D5
:101DF000387021463046FFF749FE21B0F0BD1E493C
:101E000030B40A78D0074BD0C81F0078000647D5F9
:101E10004FF448100068194C00F00F030846AA3C24
:101E20004078092B00EB800004EB400034D2DFE85F
:101E300003F0050B1D33273333332D00C079C01E4B
:101E400000EB4000000102E0C07940018038C31778
:101E500000EB93708010488000B2002801DA002067
:101E6000488042F01000087030BCDEE5C079801F69
:101E700000EB4000C000EAE7C4272200062622004B
:101E8000C0790C3800EB40008000E0E7C0791838DA
:101E900000EB40004000DAE7C07900019038D6E757
:101EA00030BC704710B5434C2078C00709D0E01F04
:101EB0000078000605D5FFF772FC207820F01000AE
:101EC000207010BD10B53B483B493A4C4078083C67
:101ED000085C2178890714D5802141EA8000C0B2CE
:101EE000FFF737FC20780122C0F383000021FFF7C1
:101EF000D3FB2078BDE81040C0F383000021FFF73A
:101F0000BBBBBDE8104021E52DE9F0470D4629494E
:101F1000074616460878A0B04FF0FF34C20727D016
:101F200040F004008A460870DFF89090E84615E01B
:101F30006A4680213846FFF738FE802818D10020F5
:101F400041464A460B5C401C6340DBB2802852F895
:101F5000233083EA1424F5D38037803D802DE7D8E1
:101F6000C5B16A4629463846FFF71FFEA84203D08E
:101F7000002020B0BDE8F087002041464A4607E037
:101F80000B5C6340DBB2401C52F8233083EA14241C
:101F9000A842F5D3E0433070010A7170010CB170B2
:101FA000000EF0709AF80010012021F004018AF868
:101FB0000010DEE7C427220038272200CC272200A9
:101FC0004FF4002141627047416A0903FCD5704714
:101FD0004FF400224A624860486A0003FCD570470B
:101FE000016821F4F04101607047016841F400612B
:101FF00001607047016841F4405101607047016819
:1020000041F4605101607047016841F4B0410160E2
:10201000704703460020024603E0D1F88000521CBE
:10202000C0B29A42F9D3704740F001020A60002220
:102030008A62B74A914203D1B64B40221A600FE040
:10204000B54A91420CD14FF45412136B23F018038C
:1020500013630823D3621823D36393632023D360CD
:1020600008604FF0FF304862704710B5844641EA7F
:102070000200AA491843029C08432146FFF7D4FFF7
:10208000A748844501D1012010E0A649C8018C452C
:1020900001D28C4602E0844500D98446B0FBFCF0B6
:1020A000401E00F03F00410041EAC010206310BD17
:1020B00030B40C46DDE902C1002818D0002C16D03F
:1020C0001BB10B6823F4F0430B60002304E012F80B
:1020D000015BC1F8C0505B1CA342F8D3BCF1000FF8
:1020E00005D00A6842F400620A6030BC70E730BC78
:1020F00070470CB58C460121CDE900120B466246B3
:102100000146FFF7D5FF0CBD03B50A46694601201D
:10211000FFF7EFFF0CBD08B50A468DF80000000A76
:102120008DF8010069460220FFF7E3FF08BD08B5FE
:10213000030A8DF80000020C8DF801308DF80220A2
:10214000000E8DF803000A4669460420FFF7D1FF10
:1021500008BDF0B50600059C17461D4623D0002F8C
:1021600021D0206820F4F0402060002004E011F825
:10217000012BC4F8C020401CB042F8D3206840F4C2
:1021800060502060F0192146FFF722FF21463046BB
:10219000FFF73FFF002004E0D4F8801005F8011B92
:1021A000401CB842F8D3F0BD30B5050008461446CF
:1021B0001DD0196821F4F0411960002104E010F8E5
:1021C000012BC3F8C020491CA942F8D3186840F479
:1021D000B040186019462846FFF7FAFE002004E0D8
:1021E000D3F8801004F8011B401CA842F8D330BD7E
:1021F00030B505000C46944618D0DCF8000020F4F9
:10220000F040CCF80000DCF8000040F44050CCF87E
:10221000000061462846FFF7DBFE002304E0DCF8FF
:10222000800004F8010B5B1CAB42F8D330BD0168A1
:1022300041F4006101607047016821F400610160B0
:102240007047016841F4805101607047016821F4D2
:102250008051016070470843104340F490101946C4
:10226000E2E610B5002304E011F8014BC2F8C040CB
:102270005B1C8342F8D310BDC1F8C0007047C2B2E6
:10228000C1F8C020000AC1F8C0007047C2B2C1F84E
:10229000C020C0F30722C1F8C020C0F30742C1F834
:1022A000C020000EC1F8C00070478068C0F30A006B
:1022B000704710B59369C3F30A03834201D201202A
:1022C00010BD002304E0D2F8804001F8014B5B1CF4
:1022D0008342F8D3002010BD8069C0F30A00704724
:1022E00070B50B490C310B680B4C0C342268002084
:1022F00001250D600E68012E00D101200B602560C4
:102300002168012901D140F00200226070BD000067
:1023100000063600000132000024350000023300C0
:1023200000366E01366E01005B48016841F04001E5
:102330000160016841F020010160016841F0020183
:1023400001605549002010310860704730B5534C8A
:10235000A04201D8240100E0514CB4FBF0F0102859
:102360000CDBC41700EB1474251124F00F04041BBC
:10237000186820F0080040F0800006E00546186864
:10238000002420F0800040F008001860C5F580703F
:10239000106004EBD4704010221A42EA001008606A
:1023A00030BD3D49086820F023020A6070471EB521
:1023B000394C226801F0230122F023020A430092E3
:1023C0006B4602AA01A9FFF7C1FF334902981C39E5
:1023D0000860091F01980860009820601EBD4FF436
:1023E00048110122C1F8BC202C4B984201D8022090
:1023F00000E0012041F8B40F4A6070478446264847
:1024000010B5001D0168C1F381010229FAD1FFF75F
:10241000C8FF04466046FFF7E2FF21466046FFF72B
:10242000C6FF012010BD70B51B4901200C310860AA
:1024300008254FF45814FEF758FCC4F88450D4F81B
:1024400084000007F7D4E069C0B270BD10B5FFF793
:10245000EAFF012802D1BDE81040E4E710BD30B525
:1024600002244FF45813C3F88440D3F88450AD07C6
:10247000F9D52AB10425DD6102E010F8012BDA61FB
:102480000A00A1F1010189B2F7D1C3F88440D3F861
:1024900084008007F9D530BD2004360060E31600C3
:1024A000006CDC0202F0FF0343EA032242EA02422C
:1024B00000F002B84FF000020429C0F0128010F0C2
:1024C000030C00F01B80CCF1040CBCF1020F18BF10
:1024D00000F8012BA8BF20F8022BA1EB0C0100F0A3
:1024E0000DB85FEAC17C24BF00F8012B00F8012B76
:1024F00048BF00F8012B70474FF0000200B51346AB
:1025000094469646203922BFA0E80C50A0E80C5013
:10251000B1F12001BFF4F7AF090728BFA0E80C50C4
:1025200048BF0CC05DF804EB890028BF40F8042BBD
:1025300008BF704748BF20F8022B11F0804F18BF2A
:1025400000F8012B70470108000106003020181028
:102550000C06040100C0320000B0320003C2201497
:102560000F000103EC00031F66010100011E6D0056
:10257000031F65000000011EEE0002BF48000000BE
:1025800001FF300002BF4900010001FF300003C21B
:10259000201000000103EC00031C311101000103B5
:1025A000EC000337301201000103B0000337301193
:1025B00001000103B0000337301001000103B00037
:1025C000031F42000F00011EEC00031F43010F0018
:1025D000011EEC00031F44020F00011EEC0003016A
:1025E0000220FF03401E6C00032020130700011E81
:1025F000EC0003BFFF140F00011E30000320FF1486
:102600000F00011EEC0006049F0501030B0202FFF0
:10261000FFFF20D8D8C7B9AB06049F0501030B0202
:1026200002FFFFFF20D8D8C7FFFF060415050103EE
:10263000FF0202FFFFFF20525262B9AB0604900571
:1026400001030B0202AF50FFFF20D8C7FFFF0604B3
:1026500090050103FF0202AF50FFFF20D8C7FFFF24
:1026600006049F0501030B0202FFFFFF20D8D8C715
:10267000B9AB06049F0501030B0202FFFFFFFF2019
:10268000D8C7B9AB06049F0501030B0202FFFFFF89
:10269000FF20D8C7B9AB06049F0501030B0202FF58
:1026A000FFFFFF20D8C7B9AB06049F0501030B024B
:1026B00002FFFFFFFF20D8C7B9AB06049F05010347
:1026C0000B0202FFFFFF20D8D8C7B9AB06049F0555
:1026D00001030B0202FFFFFF20D8D8C7B9AB0604E5
:1026E0009F0501030B0202FFFFFF20D8D8C7B9AB3B
:1026F00006049F0501130C1212FFFFFFFFDCFFC74A
:10270000FFFF06049F0501030B0A02FFFFFF20D80D
:10271000D8C7B9AB06049F0501030B0202AD50FFF9
:10272000202020C7FFFF06049F0501030B0202FFC4
:10273000FFFF20D8D8C7B9AB030303030303030388
:102740000303010F0F03030300000000000000005B
:102750000000000000000000000000000000000079
:10276000FFFFFFFF0000000000000000000000006D
:102770000000000000000000000000000000000059
:102780000000000000000000000000000000000049
:102790000000000000000000000000008D1A220070
:1027A000AB1B2200A91C220077192200091F22005E
:1027B000000000009C272200000000000000000034
:0C27C0000000000000000000000000000D
:0400000500220001D4
:00000001FF
